{
  "contractName": "Tickets",
  "abi": [
    {
      "inputs": [],
      "stateMutability": "nonpayable",
      "type": "constructor"
    },
    {
      "anonymous": false,
      "inputs": [
        {
          "indexed": true,
          "internalType": "uint256",
          "name": "ticketId",
          "type": "uint256"
        },
        {
          "indexed": true,
          "internalType": "address",
          "name": "seller",
          "type": "address"
        },
        {
          "indexed": false,
          "internalType": "uint256",
          "name": "newPrice",
          "type": "uint256"
        },
        {
          "indexed": false,
          "internalType": "uint256",
          "name": "timestamp",
          "type": "uint256"
        }
      ],
      "name": "TicketListed",
      "type": "event"
    },
    {
      "anonymous": false,
      "inputs": [
        {
          "indexed": true,
          "internalType": "uint256",
          "name": "ticketId",
          "type": "uint256"
        },
        {
          "indexed": false,
          "internalType": "uint256",
          "name": "price",
          "type": "uint256"
        },
        {
          "indexed": false,
          "internalType": "uint256",
          "name": "timestamp",
          "type": "uint256"
        }
      ],
      "name": "TicketMinted",
      "type": "event"
    },
    {
      "anonymous": false,
      "inputs": [
        {
          "indexed": true,
          "internalType": "uint256",
          "name": "ticketId",
          "type": "uint256"
        },
        {
          "indexed": true,
          "internalType": "address",
          "name": "buyer",
          "type": "address"
        },
        {
          "indexed": false,
          "internalType": "uint256",
          "name": "price",
          "type": "uint256"
        },
        {
          "indexed": false,
          "internalType": "uint256",
          "name": "timestamp",
          "type": "uint256"
        }
      ],
      "name": "TicketPurchased",
      "type": "event"
    },
    {
      "inputs": [],
      "name": "owner",
      "outputs": [
        {
          "internalType": "address",
          "name": "",
          "type": "address"
        }
      ],
      "stateMutability": "view",
      "type": "function",
      "constant": true
    },
    {
      "inputs": [
        {
          "internalType": "uint256",
          "name": "",
          "type": "uint256"
        }
      ],
      "name": "tickets",
      "outputs": [
        {
          "internalType": "uint256",
          "name": "id",
          "type": "uint256"
        },
        {
          "internalType": "address",
          "name": "owner",
          "type": "address"
        },
        {
          "internalType": "uint256",
          "name": "price",
          "type": "uint256"
        },
        {
          "internalType": "bool",
          "name": "isSold",
          "type": "bool"
        }
      ],
      "stateMutability": "view",
      "type": "function",
      "constant": true
    },
    {
      "inputs": [
        {
          "internalType": "uint256",
          "name": "price",
          "type": "uint256"
        }
      ],
      "name": "mintTicket",
      "outputs": [],
      "stateMutability": "nonpayable",
      "type": "function"
    },
    {
      "inputs": [
        {
          "internalType": "uint256",
          "name": "ticketId",
          "type": "uint256"
        }
      ],
      "name": "buyTicket",
      "outputs": [],
      "stateMutability": "payable",
      "type": "function",
      "payable": true
    },
    {
      "inputs": [
        {
          "internalType": "uint256",
          "name": "ticketId",
          "type": "uint256"
        },
        {
          "internalType": "uint256",
          "name": "newPrice",
          "type": "uint256"
        }
      ],
      "name": "sellTicket",
      "outputs": [],
      "stateMutability": "nonpayable",
      "type": "function"
    },
    {
      "inputs": [],
      "name": "getTicketCount",
      "outputs": [
        {
          "internalType": "uint256",
          "name": "",
          "type": "uint256"
        }
      ],
      "stateMutability": "view",
      "type": "function",
      "constant": true
    }
  ],
  "bytecode": "0x60a060405234801561001057600080fd5b503373ffffffffffffffffffffffffffffffffffffffff1660808173ffffffffffffffffffffffffffffffffffffffff1681525050608051610c756100676000396000818161016d01526107270152610c756000f3fe6080604052600436106100555760003560e01c806321c63a471461005a578063256d52f6146100855780632a6c4c14146100ae57806350b44712146100d757806367dd74ca146101175780638da5cb5b14610133575b600080fd5b34801561006657600080fd5b5061006f61015e565b60405161007c9190610762565b60405180910390f35b34801561009157600080fd5b506100ac60048036038101906100a791906107ae565b61016b565b005b3480156100ba57600080fd5b506100d560048036038101906100d091906107db565b610334565b005b3480156100e357600080fd5b506100fe60048036038101906100f991906107ae565b6104fd565b60405161010e9493929190610877565b60405180910390f35b610131600480360381019061012c91906107ae565b61056a565b005b34801561013f57600080fd5b50610148610725565b60405161015591906108bc565b60405180910390f35b6000600180549050905090565b7f000000000000000000000000000000000000000000000000000000000000000073ffffffffffffffffffffffffffffffffffffffff163373ffffffffffffffffffffffffffffffffffffffff16146101f9576040517f08c379a00000000000000000000000000000000000000000000000000000000081526004016101f090610934565b60405180910390fd5b600080600081548092919061020d90610983565b91905055905060016040518060800160405280838152602001600073ffffffffffffffffffffffffffffffffffffffff1681526020018481526020016000151581525090806001815401808255809150506001900390600052602060002090600402016000909190919091506000820151816000015560208201518160010160006101000a81548173ffffffffffffffffffffffffffffffffffffffff021916908373ffffffffffffffffffffffffffffffffffffffff1602179055506040820151816002015560608201518160030160006101000a81548160ff0219169083151502179055505050807f98e3b865be443d525120139ac6a4ad7bf406891236bb145ad9ec6ba80333a5b583426040516103289291906109cb565b60405180910390a25050565b60006001838154811061034a576103496109f4565b5b906000526020600020906004020190508060010160009054906101000a900473ffffffffffffffffffffffffffffffffffffffff1673ffffffffffffffffffffffffffffffffffffffff163373ffffffffffffffffffffffffffffffffffffffff16146103ec576040517f08c379a00000000000000000000000000000000000000000000000000000000081526004016103e390610a6f565b60405180910390fd5b8060030160009054906101000a900460ff1661043d576040517f08c379a000000000000000000000000000000000000000000000000000000000815260040161043490610adb565b60405180910390fd5b60008160010160006101000a81548173ffffffffffffffffffffffffffffffffffffffff021916908373ffffffffffffffffffffffffffffffffffffffff16021790555081816002018190555060008160030160006101000a81548160ff0219169083151502179055503373ffffffffffffffffffffffffffffffffffffffff16837f176f701007dec42563c0e9f579692e022357e7e13b02b2cf9bf6dd113f3f3a8484426040516104f09291906109cb565b60405180910390a3505050565b6001818154811061050d57600080fd5b90600052602060002090600402016000915090508060000154908060010160009054906101000a900473ffffffffffffffffffffffffffffffffffffffff16908060020154908060030160009054906101000a900460ff16905084565b60018054905081106105b1576040517f08c379a00000000000000000000000000000000000000000000000000000000081526004016105a890610b47565b60405180910390fd5b6000600182815481106105c7576105c66109f4565b5b906000526020600020906004020190508060030160009054906101000a900460ff1615610629576040517f08c379a000000000000000000000000000000000000000000000000000000000815260040161062090610bb3565b60405180910390fd5b8060020154341015610670576040517f08c379a000000000000000000000000000000000000000000000000000000000815260040161066790610c1f565b60405180910390fd5b338160010160006101000a81548173ffffffffffffffffffffffffffffffffffffffff021916908373ffffffffffffffffffffffffffffffffffffffff16021790555060018160030160006101000a81548160ff0219169083151502179055503373ffffffffffffffffffffffffffffffffffffffff16827fef266bb11bf4b58aa8562ab8c8746e3b84a521780a2c57ca09d87bae13f5eb0934426040516107199291906109cb565b60405180910390a35050565b7f000000000000000000000000000000000000000000000000000000000000000081565b6000819050919050565b61075c81610749565b82525050565b60006020820190506107776000830184610753565b92915050565b600080fd5b61078b81610749565b811461079657600080fd5b50565b6000813590506107a881610782565b92915050565b6000602082840312156107c4576107c361077d565b5b60006107d284828501610799565b91505092915050565b600080604083850312156107f2576107f161077d565b5b600061080085828601610799565b925050602061081185828601610799565b9150509250929050565b600073ffffffffffffffffffffffffffffffffffffffff82169050919050565b60006108468261081b565b9050919050565b6108568161083b565b82525050565b60008115159050919050565b6108718161085c565b82525050565b600060808201905061088c6000830187610753565b610899602083018661084d565b6108a66040830185610753565b6108b36060830184610868565b95945050505050565b60006020820190506108d1600083018461084d565b92915050565b600082825260208201905092915050565b7f4f6e6c79206f776e65722063616e206d696e7400000000000000000000000000600082015250565b600061091e6013836108d7565b9150610929826108e8565b602082019050919050565b6000602082019050818103600083015261094d81610911565b9050919050565b7f4e487b7100000000000000000000000000000000000000000000000000000000600052601160045260246000fd5b600061098e82610749565b91507fffffffffffffffffffffffffffffffffffffffffffffffffffffffffffffffff82036109c0576109bf610954565b5b600182019050919050565b60006040820190506109e06000830185610753565b6109ed6020830184610753565b9392505050565b7f4e487b7100000000000000000000000000000000000000000000000000000000600052603260045260246000fd5b7f4e6f7420746865206f776e657200000000000000000000000000000000000000600082015250565b6000610a59600d836108d7565b9150610a6482610a23565b602082019050919050565b60006020820190508181036000830152610a8881610a4c565b9050919050565b7f5469636b6574206e6f7420736f6c642079657400000000000000000000000000600082015250565b6000610ac56013836108d7565b9150610ad082610a8f565b602082019050919050565b60006020820190508181036000830152610af481610ab8565b9050919050565b7f496e76616c6964207469636b6574204944000000000000000000000000000000600082015250565b6000610b316011836108d7565b9150610b3c82610afb565b602082019050919050565b60006020820190508181036000830152610b6081610b24565b9050919050565b7f5469636b657420616c726561647920736f6c6400000000000000000000000000600082015250565b6000610b9d6013836108d7565b9150610ba882610b67565b602082019050919050565b60006020820190508181036000830152610bcc81610b90565b9050919050565b7f496e73756666696369656e74207061796d656e74000000000000000000000000600082015250565b6000610c096014836108d7565b9150610c1482610bd3565b602082019050919050565b60006020820190508181036000830152610c3881610bfc565b905091905056fea26469706673582212208cd8fbf74c090f9b72b25a748b4d49d704e40e6e0ef14887df06ea8883543ea264736f6c634300080d0033",
  "immutableReferences": {
    "3": [
      {
        "length": 32,
        "start": 365
      },
      {
        "length": 32,
        "start": 1831
      }
    ]
  },
  "source": "// SPDX-License-Identifier: MIT\r\npragma solidity ^0.8.13;\r\n\r\ncontract Tickets {\r\n    address public immutable owner;\r\n    uint256 private _nextId;\r\n\r\n    struct Ticket {\r\n        uint256 id;\r\n        address owner;\r\n        uint256 price;\r\n        bool isSold; \r\n    }\r\n\r\n    Ticket[] public tickets;\r\n\r\n    event TicketMinted(uint256 indexed ticketId, uint256 price, uint256 timestamp);\r\n    event TicketPurchased(uint256 indexed ticketId, address indexed buyer, uint256 price, uint256 timestamp);\r\n    event TicketListed(uint256 indexed ticketId, address indexed seller, uint256 newPrice, uint256 timestamp);\r\n\r\n    constructor() {\r\n        owner = msg.sender;\r\n    }\r\n\r\n    function mintTicket(uint256 price) external {\r\n        require(msg.sender == owner, \"Only owner can mint\");\r\n        uint256 ticketId = _nextId++;\r\n        tickets.push(Ticket(ticketId, address(0), price, false));\r\n        emit TicketMinted(ticketId, price, block.timestamp);\r\n    }\r\n\r\n    function buyTicket(uint256 ticketId) external payable {\r\n        require(ticketId < tickets.length, \"Invalid ticket ID\");\r\n        Ticket storage ticket = tickets[ticketId];\r\n\r\n        require(!ticket.isSold, \"Ticket already sold\");\r\n        require(msg.value >= ticket.price, \"Insufficient payment\");\r\n\r\n        ticket.owner = msg.sender;\r\n        ticket.isSold = true;\r\n        emit TicketPurchased(ticketId, msg.sender, msg.value, block.timestamp);\r\n    }\r\n\r\n    function sellTicket(uint256 ticketId, uint256 newPrice) external {\r\n        Ticket storage ticket = tickets[ticketId];\r\n\r\n        require(msg.sender == ticket.owner, \"Not the owner\");\r\n        require(ticket.isSold, \"Ticket not sold yet\");\r\n\r\n        ticket.owner = address(0);\r\n        ticket.price = newPrice;\r\n        ticket.isSold = false;\r\n        emit TicketListed(ticketId, msg.sender, newPrice, block.timestamp);\r\n    }\r\n\r\n    function getTicketCount() external view returns (uint256) {\r\n        return tickets.length;\r\n    }\r\n}",
  "sourcePath": "C:\\Users\\nojus\\Desktop\\.vscode\\c++\\truffle\\contracts\\Tickets.sol",
  "compiler": {
    "name": "solc",
    "version": "0.8.13+commit.abaa5c0e.Emscripten.clang"
  },
  "schemaVersion": "3.4.16",
  "updatedAt": "2025-12-17T17:53:51.299Z",
  "networkType": "ethereum",
  "devdoc": {
    "kind": "dev",
    "methods": {},
    "version": 1
  },
  "userdoc": {
    "kind": "user",
    "methods": {},
    "version": 1
  }
}