{
  "contractName": "Tickets",
  "abi": [
    {
      "inputs": [],
      "stateMutability": "nonpayable",
      "type": "constructor"
    },
    {
      "inputs": [],
      "name": "owner",
      "outputs": [
        {
          "internalType": "address",
          "name": "",
          "type": "address"
        }
      ],
      "stateMutability": "view",
      "type": "function"
    },
    {
      "inputs": [
        {
          "internalType": "uint256",
          "name": "",
          "type": "uint256"
        }
      ],
      "name": "tickets",
      "outputs": [
        {
          "internalType": "uint256",
          "name": "id",
          "type": "uint256"
        },
        {
          "internalType": "address",
          "name": "owner",
          "type": "address"
        },
        {
          "internalType": "uint256",
          "name": "price",
          "type": "uint256"
        },
        {
          "internalType": "bool",
          "name": "isSold",
          "type": "bool"
        }
      ],
      "stateMutability": "view",
      "type": "function"
    },
    {
      "inputs": [
        {
          "internalType": "uint256",
          "name": "ticketId",
          "type": "uint256"
        }
      ],
      "name": "buyTicket",
      "outputs": [],
      "stateMutability": "payable",
      "type": "function"
    }
  ],
  "bytecode": "0x6080604052336000806101000a81548173ffffffffffffffffffffffffffffffffffffffff021916908373ffffffffffffffffffffffffffffffffffffffff16021790555034801561005057600080fd5b5060005b600a811015610149576040518060800160405280828152602001600073ffffffffffffffffffffffffffffffffffffffff16815260200167016345785d8a0000815260200160001515815250600182600a81106100b4576100b361014f565b5b600402016000820151816000015560208201518160010160006101000a81548173ffffffffffffffffffffffffffffffffffffffff021916908373ffffffffffffffffffffffffffffffffffffffff1602179055506040820151816002015560608201518160030160006101000a81548160ff0219169083151502179055509050508080610141906101b7565b915050610054565b506101ff565b7f4e487b7100000000000000000000000000000000000000000000000000000000600052603260045260246000fd5b7f4e487b7100000000000000000000000000000000000000000000000000000000600052601160045260246000fd5b6000819050919050565b60006101c2826101ad565b91507fffffffffffffffffffffffffffffffffffffffffffffffffffffffffffffffff82036101f4576101f361017e565b5b600182019050919050565b6105ce8061020e6000396000f3fe6080604052600436106100345760003560e01c806350b447121461003957806367dd74ca146100795780638da5cb5b14610095575b600080fd5b34801561004557600080fd5b50610060600480360381019061005b919061031c565b6100c0565b60405161007094939291906103b4565b60405180910390f35b610093600480360381019061008e919061031c565b610123565b005b3480156100a157600080fd5b506100aa6102bd565b6040516100b791906103f9565b60405180910390f35b600181600a81106100d057600080fd5b600402016000915090508060000154908060010160009054906101000a900473ffffffffffffffffffffffffffffffffffffffff16908060020154908060030160009054906101000a900460ff16905084565b600a8110610166576040517f08c379a000000000000000000000000000000000000000000000000000000000815260040161015d90610471565b60405180910390fd5b600181600a811061017a57610179610491565b5b6004020160030160009054906101000a900460ff16156101cf576040517f08c379a00000000000000000000000000000000000000000000000000000000081526004016101c69061050c565b60405180910390fd5b600181600a81106101e3576101e2610491565b5b600402016002015434101561022d576040517f08c379a000000000000000000000000000000000000000000000000000000000815260040161022490610578565b60405180910390fd5b33600182600a811061024257610241610491565b5b6004020160010160006101000a81548173ffffffffffffffffffffffffffffffffffffffff021916908373ffffffffffffffffffffffffffffffffffffffff16021790555060018082600a811061029c5761029b610491565b5b6004020160030160006101000a81548160ff02191690831515021790555050565b60008054906101000a900473ffffffffffffffffffffffffffffffffffffffff1681565b600080fd5b6000819050919050565b6102f9816102e6565b811461030457600080fd5b50565b600081359050610316816102f0565b92915050565b600060208284031215610332576103316102e1565b5b600061034084828501610307565b91505092915050565b610352816102e6565b82525050565b600073ffffffffffffffffffffffffffffffffffffffff82169050919050565b600061038382610358565b9050919050565b61039381610378565b82525050565b60008115159050919050565b6103ae81610399565b82525050565b60006080820190506103c96000830187610349565b6103d6602083018661038a565b6103e36040830185610349565b6103f060608301846103a5565b95945050505050565b600060208201905061040e600083018461038a565b92915050565b600082825260208201905092915050565b7f496e76616c6964207469636b6574204944000000000000000000000000000000600082015250565b600061045b601183610414565b915061046682610425565b602082019050919050565b6000602082019050818103600083015261048a8161044e565b9050919050565b7f4e487b7100000000000000000000000000000000000000000000000000000000600052603260045260246000fd5b7f5469636b657420616c726561647920736f6c6400000000000000000000000000600082015250565b60006104f6601383610414565b9150610501826104c0565b602082019050919050565b60006020820190508181036000830152610525816104e9565b9050919050565b7f496e73756666696369656e74207061796d656e74000000000000000000000000600082015250565b6000610562601483610414565b915061056d8261052c565b602082019050919050565b6000602082019050818103600083015261059181610555565b905091905056fea26469706673582212200621ceda261d223b43cb8729b997021cd78d3760fd4bb7a1a4194b5f8ff67c7364736f6c634300080d0033",
  "immutableReferences": {},
  "source": "// SPDX-License-Identifier: MIT\r\n// Tells the Solidity compiler to compile only from v0.8.13 to v0.9.0\r\npragma solidity ^0.8.13;\r\n\r\nuint256 constant TOTAL_TICKETS = 10;\r\n\r\n\r\ncontract Tickets {\r\n    address public owner = msg.sender; \r\n\r\n    struct Ticket {\r\n        uint256 id;\r\n        address owner;\r\n        uint256 price;\r\n        bool isSold;\r\n    }\r\n\r\n    Ticket[TOTAL_TICKETS] public tickets;\r\n\r\n    constructor() {\r\n        for (uint256 i = 0; i < TOTAL_TICKETS; i++) {\r\n            tickets[i] = Ticket(i, address(0), 0.1 ether, false);\r\n        }\r\n    }\r\n\r\n    function buyTicket(uint256 ticketId) external payable {\r\n        require(ticketId < TOTAL_TICKETS, \"Invalid ticket ID\");\r\n        require(!tickets[ticketId].isSold, \"Ticket already sold\");\r\n        require(msg.value >= tickets[ticketId].price, \"Insufficient payment\");\r\n\r\n        tickets[ticketId].owner = msg.sender;\r\n        tickets[ticketId].isSold = true;\r\n    }\r\n\r\n}",
  "sourcePath": "C:\\Users\\nojus\\Desktop\\.vscode\\c++\\truffle\\contracts\\Tickets.sol",
  "compiler": {
    "name": "solc",
    "version": "0.8.13+commit.abaa5c0e.Emscripten.clang"
  },
  "schemaVersion": "3.4.16",
  "updatedAt": "2025-12-09T19:22:52.667Z",
  "devdoc": {
    "kind": "dev",
    "methods": {},
    "version": 1
  },
  "userdoc": {
    "kind": "user",
    "methods": {},
    "version": 1
  }
}