{
  "contractName": "Tickets",
  "abi": [
    {
      "inputs": [],
      "stateMutability": "nonpayable",
      "type": "constructor"
    },
    {
      "inputs": [],
      "name": "owner",
      "outputs": [
        {
          "internalType": "address",
          "name": "",
          "type": "address"
        }
      ],
      "stateMutability": "view",
      "type": "function",
      "constant": true
    },
    {
      "inputs": [
        {
          "internalType": "uint256",
          "name": "",
          "type": "uint256"
        }
      ],
      "name": "tickets",
      "outputs": [
        {
          "internalType": "uint256",
          "name": "id",
          "type": "uint256"
        },
        {
          "internalType": "address",
          "name": "owner",
          "type": "address"
        },
        {
          "internalType": "uint256",
          "name": "price",
          "type": "uint256"
        },
        {
          "internalType": "bool",
          "name": "isSold",
          "type": "bool"
        }
      ],
      "stateMutability": "view",
      "type": "function",
      "constant": true
    },
    {
      "inputs": [
        {
          "internalType": "uint256",
          "name": "price",
          "type": "uint256"
        }
      ],
      "name": "mintTicket",
      "outputs": [],
      "stateMutability": "nonpayable",
      "type": "function"
    },
    {
      "inputs": [
        {
          "internalType": "uint256",
          "name": "ticketId",
          "type": "uint256"
        }
      ],
      "name": "buyTicket",
      "outputs": [],
      "stateMutability": "payable",
      "type": "function",
      "payable": true
    },
    {
      "inputs": [
        {
          "internalType": "uint256",
          "name": "ticketId",
          "type": "uint256"
        },
        {
          "internalType": "uint256",
          "name": "newPrice",
          "type": "uint256"
        }
      ],
      "name": "sellTicket",
      "outputs": [],
      "stateMutability": "nonpayable",
      "type": "function"
    }
  ],
  "bytecode": "0x6080604052600060025534801561001557600080fd5b50336000806101000a81548173ffffffffffffffffffffffffffffffffffffffff021916908373ffffffffffffffffffffffffffffffffffffffff160217905550610beb806100656000396000f3fe60806040526004361061004a5760003560e01c8063256d52f61461004f5780632a6c4c141461007857806350b44712146100a157806367dd74ca146100e15780638da5cb5b146100fd575b600080fd5b34801561005b57600080fd5b506100766004803603810190610071919061073e565b610128565b005b34801561008457600080fd5b5061009f600480360381019061009a919061076b565b6102b6565b005b3480156100ad57600080fd5b506100c860048036038101906100c3919061073e565b6104ac565b6040516100d89493929190610816565b60405180910390f35b6100fb60048036038101906100f6919061073e565b610519565b005b34801561010957600080fd5b506101126106df565b60405161011f919061085b565b60405180910390f35b60008054906101000a900473ffffffffffffffffffffffffffffffffffffffff1673ffffffffffffffffffffffffffffffffffffffff163373ffffffffffffffffffffffffffffffffffffffff16146101b6576040517f08c379a00000000000000000000000000000000000000000000000000000000081526004016101ad906108d3565b60405180910390fd5b600160405180608001604052806002548152602001600073ffffffffffffffffffffffffffffffffffffffff1681526020018381526020016000151581525090806001815401808255809150506001900390600052602060002090600402016000909190919091506000820151816000015560208201518160010160006101000a81548173ffffffffffffffffffffffffffffffffffffffff021916908373ffffffffffffffffffffffffffffffffffffffff1602179055506040820151816002015560608201518160030160006101000a81548160ff0219169083151502179055505050600260008154809291906102ae90610922565b919050555050565b600182815481106102ca576102c961096a565b5b906000526020600020906004020160010160009054906101000a900473ffffffffffffffffffffffffffffffffffffffff1673ffffffffffffffffffffffffffffffffffffffff163373ffffffffffffffffffffffffffffffffffffffff1614610369576040517f08c379a0000000000000000000000000000000000000000000000000000000008152600401610360906109e5565b60405180910390fd5b6001828154811061037d5761037c61096a565b5b906000526020600020906004020160030160009054906101000a900460ff166103db576040517f08c379a00000000000000000000000000000000000000000000000000000000081526004016103d290610a51565b60405180910390fd5b6000600183815481106103f1576103f061096a565b5b906000526020600020906004020160010160006101000a81548173ffffffffffffffffffffffffffffffffffffffff021916908373ffffffffffffffffffffffffffffffffffffffff16021790555080600183815481106104555761045461096a565b5b9060005260206000209060040201600201819055506000600183815481106104805761047f61096a565b5b906000526020600020906004020160030160006101000a81548160ff0219169083151502179055505050565b600181815481106104bc57600080fd5b90600052602060002090600402016000915090508060000154908060010160009054906101000a900473ffffffffffffffffffffffffffffffffffffffff16908060020154908060030160009054906101000a900460ff16905084565b6001805490508110610560576040517f08c379a000000000000000000000000000000000000000000000000000000000815260040161055790610abd565b60405180910390fd5b600181815481106105745761057361096a565b5b906000526020600020906004020160030160009054906101000a900460ff16156105d3576040517f08c379a00000000000000000000000000000000000000000000000000000000081526004016105ca90610b29565b60405180910390fd5b600181815481106105e7576105e661096a565b5b90600052602060002090600402016002015434101561063b576040517f08c379a000000000000000000000000000000000000000000000000000000000815260040161063290610b95565b60405180910390fd5b33600182815481106106505761064f61096a565b5b906000526020600020906004020160010160006101000a81548173ffffffffffffffffffffffffffffffffffffffff021916908373ffffffffffffffffffffffffffffffffffffffff16021790555060018082815481106106b4576106b361096a565b5b906000526020600020906004020160030160006101000a81548160ff02191690831515021790555050565b60008054906101000a900473ffffffffffffffffffffffffffffffffffffffff1681565b600080fd5b6000819050919050565b61071b81610708565b811461072657600080fd5b50565b60008135905061073881610712565b92915050565b60006020828403121561075457610753610703565b5b600061076284828501610729565b91505092915050565b6000806040838503121561078257610781610703565b5b600061079085828601610729565b92505060206107a185828601610729565b9150509250929050565b6107b481610708565b82525050565b600073ffffffffffffffffffffffffffffffffffffffff82169050919050565b60006107e5826107ba565b9050919050565b6107f5816107da565b82525050565b60008115159050919050565b610810816107fb565b82525050565b600060808201905061082b60008301876107ab565b61083860208301866107ec565b61084560408301856107ab565b6108526060830184610807565b95945050505050565b600060208201905061087060008301846107ec565b92915050565b600082825260208201905092915050565b7f4f6e6c79206f776e65722063616e206d696e7400000000000000000000000000600082015250565b60006108bd601383610876565b91506108c882610887565b602082019050919050565b600060208201905081810360008301526108ec816108b0565b9050919050565b7f4e487b7100000000000000000000000000000000000000000000000000000000600052601160045260246000fd5b600061092d82610708565b91507fffffffffffffffffffffffffffffffffffffffffffffffffffffffffffffffff820361095f5761095e6108f3565b5b600182019050919050565b7f4e487b7100000000000000000000000000000000000000000000000000000000600052603260045260246000fd5b7f4e6f7420746865206f776e657200000000000000000000000000000000000000600082015250565b60006109cf600d83610876565b91506109da82610999565b602082019050919050565b600060208201905081810360008301526109fe816109c2565b9050919050565b7f5469636b6574206e6f7420736f6c642079657400000000000000000000000000600082015250565b6000610a3b601383610876565b9150610a4682610a05565b602082019050919050565b60006020820190508181036000830152610a6a81610a2e565b9050919050565b7f496e76616c6964207469636b6574204944000000000000000000000000000000600082015250565b6000610aa7601183610876565b9150610ab282610a71565b602082019050919050565b60006020820190508181036000830152610ad681610a9a565b9050919050565b7f5469636b657420616c726561647920736f6c6400000000000000000000000000600082015250565b6000610b13601383610876565b9150610b1e82610add565b602082019050919050565b60006020820190508181036000830152610b4281610b06565b9050919050565b7f496e73756666696369656e74207061796d656e74000000000000000000000000600082015250565b6000610b7f601483610876565b9150610b8a82610b49565b602082019050919050565b60006020820190508181036000830152610bae81610b72565b905091905056fea2646970667358221220a33f7c2eef73c65a58697d99e7c6a05e4a58fc6b22ce93c523a31a699aedd4ba64736f6c634300080d0033",
  "immutableReferences": {},
  "source": "// SPDX-License-Identifier: MIT\r\npragma solidity ^0.8.13;\r\n\r\ncontract Tickets {\r\n    address public owner;\r\n\r\n    struct Ticket {\r\n        uint256 id;\r\n        address owner;\r\n        uint256 price;\r\n        bool isSold;\r\n    }\r\n\r\n    Ticket[] public tickets; // Dynamic array\r\n    uint256 private _nextId = 0; // Track next ticket ID\r\n\r\n    constructor() {\r\n        owner = msg.sender;\r\n    }\r\n\r\n    // Mint a new ticket (only owner)\r\n    function mintTicket(uint256 price) external {\r\n        require(msg.sender == owner, \"Only owner can mint\");\r\n        tickets.push(Ticket(_nextId, address(0), price, false));\r\n        _nextId++;\r\n    }\r\n\r\n    // Buy a ticket\r\n    function buyTicket(uint256 ticketId) external payable {\r\n        require(ticketId < tickets.length, \"Invalid ticket ID\");\r\n        require(!tickets[ticketId].isSold, \"Ticket already sold\");\r\n        require(msg.value >= tickets[ticketId].price, \"Insufficient payment\");\r\n\r\n        tickets[ticketId].owner = msg.sender;\r\n        tickets[ticketId].isSold = true;\r\n    }\r\n\r\n    // Sell a ticket (owner can resell)\r\n    function sellTicket(uint256 ticketId, uint256 newPrice) external {\r\n        require(msg.sender == tickets[ticketId].owner, \"Not the owner\");\r\n        require(tickets[ticketId].isSold, \"Ticket not sold yet\");\r\n\r\n        tickets[ticketId].owner = address(0);\r\n        tickets[ticketId].price = newPrice;\r\n        tickets[ticketId].isSold = false;\r\n    }\r\n}",
  "sourcePath": "C:\\Users\\nojus\\Desktop\\.vscode\\c++\\truffle\\contracts\\Tickets.sol",
  "compiler": {
    "name": "solc",
    "version": "0.8.13+commit.abaa5c0e.Emscripten.clang"
  },
  "schemaVersion": "3.4.16",
  "updatedAt": "2025-12-10T16:45:28.221Z",
  "networkType": "ethereum",
  "devdoc": {
    "kind": "dev",
    "methods": {},
    "version": 1
  },
  "userdoc": {
    "kind": "user",
    "methods": {},
    "version": 1
  }
}